S01D0000617474696E793831342D71746F7563682D756172742E7372656327
S113000019C033C032C031C030C02FC032C02DC07F
S11300102CC02BC02AC029C028C027C026C025C098
S113002024C0B7C122C021C020C01FC01EC01DC033
S11300301CC01BC011241FBECFEFCDBFDFE3DEBF4A
S11300401EE3A0E0BEE3E6EFF9E102C005900D92E5
S1130050A633B107D9F72EE3A6E3BEE301C01D9290
S1130060A036B207E1F72BD0A9CCCACFDED1DCD0C1
S113007008951F920F920FB60F9211242F933F935E
S11300804F935F936F937F938F939F93AF93BF939C
S1130090EF93FF9320D182E080934301FF91EF918E
S11300A0BF91AF919F918F917F916F915F914F918C
S11300B03F912F910F900FBE0F901F901895CF93E3
S11300C0DF9300D000D0CDB7DEB7D0DF8FB7806824
S11300D08FBFCDD001E010E00F2EFAECEF2EF9E93E
S11300E0FF2EF02D08C080E090E03CD180EC99E92F
S11300F082D900E010E080E090E025D1B82E80E0C5
S113010090E0FAD06C0180E090E003D14C0180E0F3
S113011090E00CD11F921F929F938F93C4011F9262
S11301201F929F938F92C6011F921F929F93CF920B
S11301301F92BF921F930F93FF92EF9249D9198296
S11301401A821B821C8289819A81AB81BC81CDBFBA
S1130150DEBF8035934CA105B105A4F489819A8151
S1130160AB81BC810196A11DB11D89839A83AB83A8
S1130170BC8389819A81AB81BC818035934CA10574
S1130180B10564F374D00F5F1F4F033311050CF4F2
S1130190B2CFA9CF0895CF93DF9300D0CDB7DEB708
S11301A08091363E8F7021F483E190E00197F1F75E
S11301B019821A8289819A81892BE9F489819A8129
S11301C09BD089819A81A5D089819A8195D0898192
S11301D09A819FD089819A81A9D089819A81B3D04B
S11301E089819A8189819A81019689839A838981F7
S11301F09A81892B19F38091363E8F5F8093363E26
S11302000F900F90DF91CF91089581E08093393E54
S11302100895E0E4F1E0918192FDFDCF90E08093B8
S11302204A0190934B01089580E2F3DFE4E1F4E0A6
S11302308081877F80838081887F8460808385E15B
S11302409EE396D78EE49EE3CBD760E070E085E131
S11302509EE334D860E070E085E19EE34ED849E443
S11302605EE360E080E09EE38BD194DF08958091AB
S11302703A3E813049F465E071E085E19EE3BAD706
S1130280811102C010923A3E8091393E813011F5BD
S11302901092393EEFD581110AC080E09EE38FD1E0
S11302A0882349F082E08093373E75DF04C081E003
S11302B08093373E70DFE091003EF091013E8081F3
S11302C0882324F481E080933A3E03C081E0809344
S11302D0383E61DF08958091483E8F5F843118F481
S11302E08093483E08951092483E81E080933A3EC0
S11302F084E190E03AD108959C01220F331F220F2C
S1130300331F820F931FFC01E75BF14C81819281C3
S113031008959C01220F331F820F931FFC01EE0FDF
S1130320FF1FE05BF14C8481958108959C01220FAD
S1130330331F220F331F820F931FFC01E75BF14C25
S11303408381948108959C01220F331F820F931F90
S1130350880F991FE091043EF091053EE80FF91FC4
S113036080810895CF93DF93EC01BC0185E19EE386
S1130370C4D7AE01440F551F440F551F4C0F5D1FCA
S1130380475B514C6C2F80E09EE3FAD0DF91CF9114
S113039008951F920F920FB60F9211242F933F933B
S11303A04F935F936F937F938F939F93AF93BF9379
S11303B0EF93FF93E3D7FF91EF91BF91AF919F919B
S11303C08F917F916F915F914F913F912F910F90FA
S11303D00FBE0F901F90189580E0089540E068EDDF
S11303E081E690E02AD080E00895789480E0089532
S11303F0E0E1F4E0808188608193E83184E0F807EB
S1130400C9F7E0E3F4E0808188608193E83384E015
S1130410F807C9F708952398E3E3F4E08081877F20
S11304208083229A2A981CD00895E2DFD7DF09D06E
S1130430F2DFDBDF13D0D0DF0895FC0164BF40831B
S11304400895E0E4F1E081818111FDCFE0E4F1E081
S113045081E8808382E0828380E0089580E00895CB
S1130460E0E0F8E08DE890E28087918780EC868375
S113047086E29EE380935C3E90935D3E80E0089527
S1130480E0E0F8E0948195FFFDCF809302080895A1
S1130490F7DF80E090E00895CF92DF92FF920F9310
S11304A01F93CF93DF93EC01AE81BF81EB01CC0F9F
S11304B0DD1FC60FD71FCA0FDB1FFA80FC01448162
S11304C05581E6E0E69F9001E79F300D11248A01F3
S11304D0020F131FF80122813381F9012181328136
S11304E0F80104811581201B310BE8812E1B310991
S11304F0EC01EA81FB8100811181FA0140E050E0C6
S11305004017510739F146175707F9F012968C91A5
S11305101297F8121AC0808185588230E8F0C4809E
S1130520D58082819381EC0189819A81C816D9068C
S113053060F48C199D09CC91D0E0C817D90728F430
S11305408C1B9D0B2817390738F04F5F5F4F1396AC
S11305503696D6CF80E001C081E0DF91CF911F9124
S11305600F91FF90DF90CF90089520913B3E309102
S11305703C3E820F931F80933B3E90933C3E0895F4
S11305800097D9F041155105C1F026E0629FB001F2
S11305901124DC011496ED91FC911597E60FF71FD9
S11305A021E0208314968D919C911597FC01E60F10
S11305B0F71F4283538380E008958BE008952F92C0
S11305C03F924F925F926F927F928F929F92AF92DF
S11305D0BF92CF92DF92EF92FF920F931F93CF932C
S11305E0DF93009709F47BC3EC01A12CB12C812C7F
S11305F0912C212CD12C33E0C32E45E8642E56E8EF
S1130600752E67E0362E72E0472EE8E05E2EEA8112
S1130610FB81808191818816990608F0A3C1750138
S1130620EE0CFF1C0C811D810E0D1F1DD8018C9139
S1130630843009F4A1C038F4823001F108F049C0D3
S1130640813059F088C1853809F4C0C0863809F46E
S1130650F4C0873009F07FC135C1D8011296ED91FD
S1130660FC91139780818E7109F067C14C928C8143
S11306709D81FC01EE0DFF1D51825FC1F8012181B6
S1130680222329F10280F381E02D253020F081819D
S11306909281D8010EC0D80114968D919C91159722
S11306A0418152818417950769F04817590730F43E
S11306B0019714968D939C93159704C00196F801A5
S11306C0848395832150D80111962C9336C1F80167
S11306D02FC1D80114962D913C91159712968D91A6
S11306E09C911397DC0111964D915C9112972417FC
S11306F0350709F430C18E819F8142175307E0F416
S1130700241B350BDC01AA0DBB1D8C9190E00580E8
S113071002C0959587950A94E2F799272817390717
S113072008F419C18481882309F415C1F8013082C1
S1130730EA81FB81248119C0FC01EA0DFB1D421BE7
S1130740530B808190E04817590708F404C1828153
S1130750882329F0B401CE019FDE8111FCC0E4E0BE
S1130760D801EC93EA81FB8122818C819D81FC017B
S1130770EE0DFF1D2183E1C0D80114962D913C910B
S113078015971296ED91FC911397818192818217AE
S1130790930708F4D6C0EE81FF81EA0DFB1D821B8E
S11307A0930B208130E02817390708F0AEC082810E
S11307B0882329F0B401CE016FDE8111CCC0F80189
S11307C08181882309F467C08150B6C0A881B981AA
S11307D0808513968C93EC81FD81EE0DFF1D448181
S11307E05581A281B38111968D919C9112978417A2
S11307F09507C0F0AE81BF81AA0DBB1D6C91262F59
S113080030E011967C917F5F02C0359527957A95EB
S1130810E2F7841B950B621B262F30E0281739075B
S113082008F497C07082EA81FB8122818C819D81CA
S1130830FC01EE0DFF1D218342C0D80114966D9179
S11308407C9115971296ED91FC9113972181328139
S11308502617370758F411968C911197811102C00D
S1130860CC9277C08150F801818373C0EE81FF81FF
S1130870EA0DFB1D8081482F50E091819F5F02C0EB
S1130880559547959A95E2F7261B370B841B90E004
S11308908217930760F4D8016C92EA81FB8123816B
S11308A08C819D81FC01EE0DFF1D218352C0F80156
S11308B08181811102C0C0824CC081508183222475
S11308C023943BC0D80114962D913C911597129610
S11308D08D919C911397DC0111968D919C911297A7
S11308E08217930768F5281B390BAE81BF81AA0DC7
S11308F0BB1D8C9190E0058002C0959587950A9464
S1130900E2F799272817390718F4F801C0821AC0AA
S1130910D80111968C91119781110CC081E08C93B0
S11309208C819D81FC01EE0DFF1D0280F381E02D81
S1130930C08211C08150F8018183DD24D3940BC09F
S1130940D801CC928C819D81FC01EE0DFF1D11829A
S113095002C022242394BFEF8B1A9B0AE3E0AE0E5D
S1130960B11C55CEE881F981808187FF23C040E026
S113097050E020E030E0EA81FB81808191812817FA
S1130980390798F4EC81FD81E40FF51FA281B3814E
S11309908C9180FD05C09081977F11F081608C93CC
S11309A02F5F3F4F4A5F5F4FE6CFE881F981808137
S11309B08F778083D11007C0E881F98121106FC03F
S11309C080818E7F6EC0EA81FB8181858823A1F3BB
S11309D0E881F981808180688083EA81FB81818557
S11309E0813051F740E050E020E030E096E0D92E2D
S11309F0EA81FB816081718126173707E8F60C8153
S1130A001D81FA01EE0FFF1FE00FF11F8081982F67
S1130A10977FA1F1853811F08330B1F5EE80FF8026
S1130A20D701A40FB51F1296BC90BB2039F180E00A
S1130A3090E0C12C86179707F8F428173907D1F0EE
S1130A40D89ED001D99EB00D1124A00FB11FAC9136
S1130A50A43011F0A63871F4DC01AA0FBB1FA80F53
S1130A60B91FAE0DBF1D1296AC91BA1203C0CB01D3
S1130A70CC24C3940196DECFC11006C00280F3815A
S1130A80E02D80818E7F05C00280F381E02D80817E
S1130A90816080832F5F3F4F4D5F5F4FA9CF80817F
S1130AA08160808380913B3E90913C3EE881F98156
S1130AB021813281A90148535F4F4817590738F4FF
S1130AC0821B930BAA24A394A3E0BA2E44C08217DA
S1130AD0930710F080E004C1821B930B0197893CBB
S1130AE09105C0F3EFCF885C9109E881F9812181F8
S1130AF0328128533F4F218332832381211196C0B1
S1130B002481222311F021502483E881F981258155
S1130B10222311F0215025838A809B80D4011696CC
S1130B202C91169721111BC08A809B80F401278188
S1130B30211148C0EA81FB812381222361F020E056
S1130B4030E0A0E0B0E0EA81FB8140815181A4174C
S1130B50B50708F46EC0893C910528F6BBCF08811F
S1130B601981F80124812111DFCFED90FC9060E020
S1130B7070E040E050E04E155F05F1F0EC81FD813E
S1130B80E60FF71F2081233011F0283081F42481EF
S1130B903581C280D380D6011196CD90DC90129716
S1130BA02C153D0520F42F5F3F4F248335834F5F81
S1130BB05F4F6A5F7F4FDFCFF4012681D80114961F
S1130BC02C93B2CF08811981D80115962C9121114B
S1130BD0B1CFE080F18060E070E040E050E04E157D
S1130BE05F05F1F0EC81FD81E60FF71F20812330D2
S1130BF011F0283081F424813581C280D380D6015C
S1130C001196CD90DC901297C216D30620F4215091
S1130C103109248335834F5F5F4F6A5F7F4FDFCF96
S1130C20F4012781D80115962C9384CF2150238376
S1130C3081CFA901440F551FEC81FD81E40FF51FFD
S1130C406081653809F047C06181662319F06150FD
S1130C50618341C0A0826C817D81FB01E40FF51F9B
S1130C600280F381E02DB082EE81FF81E20FF31F59
S1130C70D280DD2081F140E050E000E010E0EA8124
S1130C80FB81608171810617170728F5EE81FF81CA
S1130C90E40FF51F6281D61219C0BA01660F771FDF
S1130CA0EC81FD814F01860E971EF401E280F380F2
S1130CB0F701F080F0FE0AC0F401A082EC81FD810E
S1130CC0E60FF71F0280F381E02DB0820F5F1F4F04
S1130CD04D5F5F4FD4CF11962D5F3F4F34CF8BE0E4
S1130CE0DF91CF911F910F91FF90EF90DF90CF9004
S1130CF0BF90AF909F908F907F906F905F904F9038
S1130D003F902F9008958091403E9091413EA09154
S1130D10563EB091573EED91FC911197408151811F
S1130D2025E0289FB001299F700D112420E030E0B8
S1130D3084179507A8F41496ED91FC911597E20F8A
S1130D40F31FE60FF71FE0812B5F3F4FE0FD02C06A
S1130D500196EECF8093403E9093413E80E008950B
S1130D601092403E1092413E81E00895BC01E09112
S1130D70563EF091573E86E0869F9001879F300D46
S1130D801124A281B381A20FB31F11968C91809379
S1130D902A06A281B381A20FB31F8C9180932606E9
S1130DA095E0969FA001979F500D1124A481B581D1
S1130DB0A40FB51F13968C9180931A06A481B58154
S1130DC0A40FB51F14968C9180931B06A481B58142
S1130DD0A40FB51F8C9181FD9C9384819581DC01C6
S1130DE0A40FB51F8C918C7169F4A281B381A20FF9
S1130DF0B31F1496AC91A295AF70B0E0A051B64663
S1130E008C9101C08FE380931C06A281B381A20F51
S1130E10B31F12968C918B3110F48C5F01C08FE15B
S1130E2080930506A281B381A20FB31F15968C91FE
S1130E3080930106A281B381A20FB31F13968C91F4
S1130E4082958F708093190682819381FC01E20F51
S1130E50F31F83818F70806180930206809118064E
S1130E6083608093180681E88093000681E0809374
S1130E70080608953F924F925F926F927F928F92ED
S1130E809F92AF92BF92CF92DF92EF92FF920F9315
S1130E901F93CF93DF9380913F3E882309F448C189
S1130EA0A091563EB091573EC090583ED090593EC6
S1130EB000E010E060E070E0E12CF12C80E03324ED
S1130EC03394D1E84D2E88248A94992493946D9078
S1130ED07C901197F30120813181E216F30608F02A
S1130EE023C1E601299139916E011496ED91FC918B
S1130EF01597E60FF71F40814C7150E056954795C2
S1130F00569547954115510521F041305105B9F0E9
S1130F1002C11296CD91DC911397C00FD11F4C8161
S1130F204F709D81491710F4941B01C090E002C0DA
S1130F30369527959A95E2F721833283EDC0129670
S1130F404D915C911397400F511FEA010D8002C02F
S1130F50369527950A94E2F721833283A380B480DF
S1130F602115D2E03D0720F02F5F314091E005C00C
S1130F70A401421B530B9A0190E0E3015A80D0E490
S1130F805D1205C036952795992319F009C0992358
S1130F9039F04FEFA416B40631F440828EE007C056
S1130FA07724739401C0712C2A30310590F414967F
S1130FB0ED91FC911597E60FF71F908197FF308212
S1130FC01496ED91FC911597E60FF71FA382B48256
S1130FD0A3C0E501CD2FDD27C295CF709C2FA501BD
S1130FE044275F70652EA501407F55275295429591
S1130FF04F7045275F7045275A2D5F70A52EC4306A
S113100030F09370D695C795D695C7959C0F7110FF
S11310103CC050E8550D523010F456E007C053E080
S113102005C0951768F49F5F2F5C3109203D310599
S1131030C0F706C0CFE06C1649F06394255131091E
S113104026313105B8F7DFE06D120EC0951720F494
S11310509F5FD5E06D2E08C0CFE06C2E05C04F30E9
S113106049F04F5F2250310923303105C0F74F302A
S113107009F065C04FE0641681F1639445E05FC0F8
S1131080992361F091502F5C3109203D3105C0F75F
S113109005C0662041F06A94255131092631310595
S11310A0C0F761100DC0992321F091505AE0652ECC
S11310B007C0612C05C0442341F04150225031093E
S11310C023303105C0F7411110C06620E9F16A945C
S11310D04AE023303105C8F608C059132FC0233025
S11310E0310540F14FE0A42E4FE0943018F0990FF1
S11310F0990F9950C0E14C9FA001112456294A2907
S1131100C92FD0E0DC2FCC27D295D07F4C2B5D2B80
S11311104383548301C0FFCFDFEFED1AFD0A6B5FF9
S11311207F4F0A5F1F4FD3CE92E090933F3E0EC095
S113113083E00CC04FE02FE0A22ED7CF4FE0233046
S1131140310508F073CFD1CF40E0CFCFDF91CF91FD
S11311501F910F91FF90EF90DF90CF90BF90AF90D1
S11311609F908F907F906F905F904F903F900895E5
S1131170CF93DC01892B79F1ED91FC91119760817A
S1131180718140E050E020E030E090E0261737071E
S113119079F01296ED91FC911397E40FF51FC0813D
S11311A081818C2B982B2F5F3F4F4A5F5F4FEECF8F
S11311B0992399F080913F3E811106C090932206B5
S11311C081E080933F3E05C080912206982B909346
S11311D0220680E003C08BE001C082E0CF91089535
S11311E0009731F08093583E9093593E80E00895E3
S11311F08BE008956115710591F1009781F12091BB
S11312003F3E222371F1243071F18093563E909336
S1131210573E60933D3E70933E3E20EC209318066B
S1131220DC01ED91FC912281203421F420911806F7
S1131230206205C0203841F42091180628622093CA
S1131240180610921E0613C0213879F4209118064E
S113125028622093180626E820931E0608C08BE017
S1131260089583E0089581E0089582E0089510923E
S11312700006DC01ED91FC918481803108F080E16D
S11312808093030681E080930B0680930A06809383
S1131290343E1092403E1092413E35DD81110AC029
S11312A084E080933F3E8091403E9091413E5EDDDC
S11312B080E0089582E080933F3E08950097C9F04E
S11312C0DC01ED91FC9111972081318126173707BC
S11312D090F045E0469F9001479F300D11241496ED
S11312E0ED91FC911597E20FF31F81E0808380E07C
S11312F008958BE0089582E00895FC01892BD1F1D3
S1131300A081B1818D919C91119786179707A0F1C7
S113131012969C910480F581E02D903459F485E077
S1131320869FD001879FB00D1124AE0FBF1F84E3A9
S113133092E00DC09058923080F485E0869FD001F1
S1131340879FB00D1124AE0FBF1F87E695E013965B
S11313508D939C93149780E001C082E095E0969F62
S11313609001979F300D1124E20FF31F908192603A
S1131370908308958BE0089582E00895109200060A
S113138040911006509111068091403E9091413E4B
S11313909C01220F331FE091583EF091593EE20F19
S11313A0F31F4083518301968093403E9093413EC6
S11313B0AADC811108C084E080933F3E8091403EC6
S11313C09091413ED3CCE0913D3EF0913E3E099454
S11313D0A0E0B0E0EDEEF9E0D0C2AE014B5F5F4FAC
S11313E0FA0161917191AF0180915C3E90915D3EF3
S11313F032D0E2E0DBC20F931F93CF93DF93E091EF
S11314005C3EF0915D3E238121FF1BC08C01D0E046
S1131410C0E0F80181918F0160915C3E70915D3E66
S1131420DB011896ED91FC911997882331F0099509
S1131430892B79F3DFEFCFEFECCF8AE00995892B85
S113144019F08FEF9FEF02C08D2F9C2FDF91CF916A
S11314501F910F910895ABE0B0E0E0E3FAE07DC2A4
S11314606C017B018A01FC0116821782838181FF52
S1131470BFC1CE0101963C01F6019381F70193FDB2
S1131480859193FF81917F01882309F4ADC1853251
S113149039F493FD859193FF81917F01853221F485
S11314A0B60190E0C0D1E8CF912C212C312CFFE182
S11314B0F315D8F08B3279F038F4803279F0833236
S11314C0A1F4232D20611DC08D3261F0803369F4B5
S11314D0232D216016C0832D8260382EE32DE46015
S11314E03E2E2AC0F32DF8601DC037FC2DC020ED20
S11314F0280F2A3040F08E32B9F436FC75C1232D02
S11315002064322E19C036FE06C08AE0989E200D53
S11315101124922E11C0EAE02E9E200D1124222EB9
S1131520F32DF0623F2E08C08C3621F4832D8068A1
S1131530382E02C0883641F4F70193FD859193FF5C
S113154081917F018111B3CF982F9F7D9554933062
S113155028F40C5F1F4F9FE399830DC0833631F04D
S1131560833771F0833509F055C020C0F8018081BC
S113157089830E5F1F4F88248394912C530112C0DA
S11315802801F2E04F0E511CF801A080B18036FE14
S113159003C0692D70E002C06FEF7FEFC50138D141
S11315A04C018201F32DFF773F2E15C0280122E064
S11315B0420E511CF801A080B18036FE03C0692D93
S11315C070E002C06FEF7FEFC50117D14C01F32D1E
S11315D0F0683F2E820133FC19C0822D90E08816FA
S11315E09906A0F4B60180E290E01DD12A94F5CFCB
S11315F0F50137FC859137FE81915F01B60190E0DA
S113160012D121102A9421E0821A910881149104A4
S113161079F7E1C0843611F0893639F5F80137FEDF
S113162007C060817181828193810C5F1F4F08C064
S113163060817181072E000C880B990B0E5F1F4F80
S1131640F32DFF763F2E97FF09C0909580957095F6
S113165061957F4F8F4F9F4FF0683F2E2AE030E017
S1131660A3011DD1882E861844C0853731F4232D5B
S11316702F7EB22E2AE030E025C0932D997FB92E1B
S11316808F36C1F018F4883579F0AEC0803719F080
S1131690883721F0A9C0E92FE061BE2EB4FE0DC049
S11316A0FB2DF460BF2E09C034FE0AC0292F26602A
S11316B0B22E06C028E030E005C020E130E002C0D0
S11316C020E132E0F801B7FE07C0608171818281B8
S11316D093810C5F1F4F06C06081718180E090E0B0
S11316E00E5F1F4FA301DBD0882E8618FB2DFF77DA
S11316F03F2E36FE0DC0232D2E7FA22E891458F4C2
S113170034FE0BC032FC09C0832D8E7EA82E05C08A
S1131710B82CA32C03C0B82C01C0B92CA4FE0FC054
S1131720FE01E80DF11D8081803321F49A2D997E0C
S1131730A92E09C0A2FE06C0B394B39404C08A2D96
S1131740867809F0B394A3FC10C0A0FE06C0B214BE
S113175080F4280C922C9B180DC0B21458F4B601D6
S113176080E290E060D0B394F8CFB21418F42B1850
S113177002C0982C212CA4FE0FC0B60180E390E097
S113178052D0A2FE16C0A1FC03C088E790E002C0BC
S113179088E590E0B6010CC08A2D867851F0A1FE50
S11317A002C08BE201C080E2A7FC8DE2B60190E0AA
S11317B03AD0891430F4B60180E390E034D09A949E
S11317C0F8CF8A94F301E80DF11D8081B60190E011
S11317D02AD08110F6CF222009F44ECEB60180E241
S11317E090E021D02A94F7CFF6018681978102C038
S11317F08FEF9FEF2B96E2E1C9C0FC010590615089
S113180070400110D8F7809590958E0F9F1F089512
S1131810FC016150704001900110D8F780959095BB
S11318208E0F9F1F08950F931F93CF93DF93FB0198
S1131830238121FD03C08FEF9FEF2CC022FF16C030
S113184046815781248135814217530744F4A0818E
S1131850B1819D012F5F3F4F208331838C9326817B
S113186037812F5F3F4F2683378314C08B01EC01F0
S1131870FB010084F185E02D0995892BE1F6D8015F
S113188016968D919C911797019616968D939C931D
S11318901797CE01DF91CF911F910F910895FA010F
S11318A0AA27283051F1203181F1E8946F936E7F9B
S11318B06E5F7F4F8F4F9F4FAF4FB1E03ED0B4E08C
S11318C03CD0670F781F891F9A1FA11D680F791FCD
S11318D08A1F911DA11D6A0F711D811D911DA11DDE
S11318E020D009F468943F912AE0269F11243019EE
S11318F0305D3193DEF6CF010895462F4770405D89
S11319004193B3E00FD0C9F7F6CF462F4F70405D37
S11319104A3318F0495D31FD4052419302D0A9F792
S1131920EACFB4E0A6959795879577956795BA958C
S1131930C9F700976105710508959B01AC010A2E52
S113194006945795479537952795BA95C9F7620F29
S1131950731F841F951FA01D08952F923F924F92CD
S11319605F926F927F928F929F92AF92BF92CF922B
S1131970DF92EF92FF920F931F93CF93DF93CDB734
S1131980DEB7CA1BDB0BCDBFDEBF09942A883988BA
S113199048885F846E847D848C849B84AA84B98403
S11319A0C884DF80EE80FD800C811B81AA81B9810F
S11319B0CE0FD11DCDBFDEBFED010895F894FFCF4A
S11319C043414C49425241544500693D25642073CA
S11319D0746174653D2564207369673D256C6420DA
S11319E07265663D256C642063633D256C640A0062
S10919F03F1C0B0503017E
S11319F6423E0B3E503E083E140100010004000521
S1131A060014051401213E1B3E493E00010003005B
S1131A1604010080300000000002000000004802BB
S1091A26000000000100B5
S9030000FC
